:020000040800F2
:10000000B0040020FD1100083D1100084511000852
:1000100047110008491100084B11000800000000BA
:100020000000000000000000000000004D1100086A
:100030004F11000800000000511100085311000882
:1000400025120008291200082D120008311200089C
:1000500035120008391200083D120008411200084C
:1000600045120008491200084D12000851120008FC
:1000700055120008591200085D12000861120008AC
:1000800065120008691200086D120008711200085C
:1000900075120008791200087D120008811200080C
:1000A00085120008891200088D12000891120008BC
:1000B00095120008991200089D120008A11200086C
:1000C000A5120008A9120008AD120008B11200081C
:1000D000B5120008B9120008BD120008C1120008CC
:1000E000C5120008C9120008CD120008D11200087C
:1000F000D5120008D9120008DD120008E11200082C
:10010000E5120008E9120008ED120008F1120008DB
:10011000F5120008F9120008FD120008011300088A
:1001200005130008091300080D1300081113000837
:100130002DE9FC410400002C01D10120DFE12078F1
:10014000C0076BD5DFF8A805016811F00C01042980
:1001500007D0016811F00C0108290CD10068C00318
:1001600009D5DFF888050068800357D56068002846
:1001700054D10120C3E16068B0F5803F06D1DFF8BB
:100180006C05016851F48031016026E06068002848
:100190000AD1DFF85805016831F480310160016847
:1001A00031F48021016018E06068B0F5A02F0AD119
:1001B000DFF83805016851F480210160016851F4CD
:1001C0008031016009E0DFF82405016831F48031F5
:1001D0000160016831F480210160606800280ED060
:1001E00000F0AEFA0500DFF804050068800315D4BE
:1001F00000F0A6FA401B6528F5D303207FE100F04C
:100200009FFA0500DFF8E4040068800306D500F0DB
:1002100097FA401B6528F5D3032070E1207880070A
:100220001ED5DFF8CC04016811F00C0F07D001686F
:1002300011F00C0108292CD10068C00329D4DFF883
:10024000AC040168890704D52169012901D0012086
:1002500055E1016831F0F801626951EAC2010160BB
:100260002078000749D5A069002871D00120DFF867
:100270009814086000F064FA0500DFF88404006850
:10028000800737D400F05CFA401B0328F5D3032025
:1002900035E1206900281AD00120DFF870140860C9
:1002A00000F04EFA0500DFF844040168890706D41F
:1002B00000F046FA401B0328F5D303201FE1016834
:1002C00031F0F801626951EAC2010160C8E700201B
:1002D000DFF83814086000F033FA0500DFF80C048A
:1002E00000688007BCD500F02BFA401B0328F5D32B
:1002F000032004E1012000F0E7F92078400740F1F5
:1003000096800026DFF808542868C00009D42868C1
:1003100050F080502860286810F0805000900098BD
:100320000126DFF8F0733868C00524D4386850F42B
:100330008070386000F004FA80463868C0051AD42E
:1003400000F0FEF9B0EB08006528F6D30320D6E0F4
:100350000020DFF8B413086000F0F2F90500DFF8C0
:10036000A00300688007C8D500F0EAF9401B032805
:10037000F5D30320C3E0E068012806D1DFF8980335
:10038000016851F00101016025E0E06800280AD110
:10039000DFF884030168490849000160016831F011
:1003A0000401016017E0E06805280AD1DFF868035E
:1003B000016851F004010160016851F00101016020
:1003C00009E0DFF854030168490849000160016849
:1003D00031F004010160E068002810D000F0B0F9AD
:1003E0000700DFF834030068800719D400F0A8F98B
:1003F000C01B41F289318842F3D303207FE000F033
:100400009FF90700DFF810030068800708D500F0A7
:1004100097F9C01B41F289318842F3D303206EE083
:10042000F6B2012E03D1286830F080502860E069D0
:10043000002863D0DFF8B862306810F00C0008289C
:100440004AD0E069022834D1DFF8D0720020386049
:1004500000F076F98046DFF894522868800107D5CD
:1004600000F06EF9B0EB08000328F4D3032046E057
:10047000206AB0F5803F05D1316831F40031A068C1
:1004800001433160316831F47411206A0143606ABC
:10049000014331600120386000F052F904002868FF
:1004A00080012BD400F04CF9001B0328F7D3032064
:1004B00025E00020DFF86412086000F041F9040034
:1004C000DFF828020068800118D500F039F9001B18
:1004D0000328F5D3032012E0E069012801D10120AF
:1004E0000DE0306810F48031226A914204D110F49A
:1004F0007010616A884201D0012000E00020BDE850
:10050000F6812DE9F04104000E00002C01D10120FC
:1005100098E0DFF80C52286810F00700B0420BD2C8
:100520002868C008C00030432860286810F0070021
:10053000B04201D0012085E02078800716D52078D0
:10054000400704D56A48016851F4E06101602078F1
:10055000000704D56648016851F4605101606449A0
:100560000A6832F0F002A06802430A602078C007EF
:1005700032D56068012805D15C480068800310D43A
:1005800001205FE06068022805D1584800688001BA
:1005900007D4012056E055480068800701D40120A7
:1005A00050E0534F39688908890060680143396019
:1005B00000F0C6F88046386810F00C006168B0EBB7
:1005C000810F09D000F0BCF8B0EB080041F289318E
:1005D0008842F0D3032035E0286810F007008642F7
:1005E0000BD22868C008C00030432860286810F08B
:1005F0000700B04201D0012024E02078400706D552
:100600003B490A6832F4E062E06802430A602078FD
:10061000000707D53648016831F46051226951EA74
:10062000C201016000F014F83E49314A1268C2F379
:100630000312895CC840304908603048006800F007
:1006400085F80020BDE8F081012037490860704737
:1006500000B585B001A83549102200F09DF8344856
:100660000088ADF8000000200020002000200020BD
:100670001F4A116811F00C00042802D0082802D08B
:1006800014E01C4813E001A8C1F38343C05CC90314
:1006900009D569461268C2F340428A5C154948434D
:1006A000B0FBF2F001E02349484300E0114805B0F7
:1006B00000BD80B513480068000604D500F03EF880
:1006C00080201D49087001BD81B00B490968C90827
:1006D0004FF47A72B1FBF2F14843009000BF0098EA
:1006E000411E00910028F9D101B07047001002406E
:1006F0000410024000127A00A4000020A000002094
:10070000241002400810024080044242000042428D
:100710001C10024000700040201002406000424265
:1007200000200240EC1100084C004242DC1100089D
:100730003E07000800093D000A1002407047010210
:1007400001480068704700BFA800002010B50400F1
:100750004FF47A700D490978B0FBF1F00C49096843
:10076000B1FBF0F000F0CAF8002801D001200CE045
:10077000102C09D2002221005FF0FF3000F0ADF80C
:1007800004480460002000E0012010BDAC000020FF
:10079000A4000020A0000020103A07D330B4B1E834
:1007A0003810103AA0E83810F9D230BC530724BFF3
:1007B000B1E80810A0E8081044BF51F8043B40F825
:1007C000043BD20724BF31F8022B20F8022B44BF90
:1007D0000B7803707047121F17D35B0009D151F8D3
:1007E000043B20F8023B1B0C121F20F8023BF6D200
:1007F0000BE051F8043B00F8013B1B0A20F8023BD8
:100800001B0C121F00F8013BF3D238BF121D521E01
:1008100024BF11F8013B00F8013BF8D870470000F5
:1008200010F00700374B1A684FF6FF010A403649AF
:1008300051EA00210A431A60704732480068C0F349
:1008400002207047020052B2002A04D409012F4A44
:1008500040B2115407E009012D4A40B210F00F00D8
:10086000104400F8041C704710B410F00700D0F1D9
:100870000703052B01D3042301E0D0F10703041D76
:10088000072C01D2002000E0C01E012414FA03F35B
:100890005B1E1940814014FA00F0401E10400843CE
:1008A00010BC704780B5411EB1F1807F01D301209B
:1008B0000EE0401E174908600F215FF0FF30FFF780
:1008C000C1FF002014490860072014490860002077
:1008D00002BD80B5FFF7A4FF01BD70B504000D0097
:1008E00016000020FFF7A9FF32002900FFF7BCFF28
:1008F0000100200040B2FFF7A5FF70BD80B5FFF7F3
:10090000D1FF02BD0CED00E00000FA0500E400E0BC
:1009100018ED00E014E000E018E000E010E000E076
:1009200080B500F021F900F0D1F8302000F00CF88B
:100930000C2000F009F8012000F006F801BD0100CC
:10094000481E0029FBD1704738B50400DFF8FC5180
:1009500001220421280000F082FAF82000F0CBF8F0
:1009600014F0F00000F0C7F824012000C0B200F03D
:10097000C2F801220421280000F071FA31BD38B517
:100980000400DFF8C85101220421280000F067FAB2
:10099000FA2000F0B0F814F0F00000F0ACF82401F8
:1009A0002000C0B200F0A7F801220421280000F0C6
:1009B00056FA31BD10B51400664AC0B202EBC00051
:1009C000C9B2405CFFF7C0FF03E02078FFF7D7FF14
:1009D000641C20780028F8D110BD80B50120FFF7F5
:1009E000B3FF0A2000F06AFA01BD70B504000D00E3
:1009F00016003100C9B2002905D0022907D004D35E
:100A0000032906D006E0544804E0544802E0544864
:100A100000E054483100C9B200F021F83200D2B2EF
:100A20002900C9B22000C0B200F041F870BD80B505
:100A3000C0B2002805D0022807D004D3032806D06E
:100A400007E0802205E0902203E0882201E098225E
:100A5000FFE789180800C0B2FFF776FF01BD70B547
:100A600004000D003420FFF76FFF0220FFF76CFF3A
:100A70003020FFF769FFEDB22D014035002611E06F
:100A80007019C0B2FFF760FF3000C0B214F8100058
:100A9000FFF775FF3000C0B204EB40004078FFF76D
:100AA0006EFF761C3000C0B21028E9DB70BD10B5B7
:100AB0001400C9B2C0B2FFF7BAFF0020FFF75FFF12
:100AC000E4B26000C0B2FFF75AFF10BD10B5204C71
:100AD00000224FF40071200000F0C1F9052000F061
:100AE000EDF901224FF40071200000F0B8F9052063
:100AF00000F0E4F910BD70B50400002521E00022EB
:100B00002021134800F0ABF909E02000C0B2A84052
:100B10000006F4D5012220210D4800F0A0F90C4E6A
:100B200001220821300000F09AF96420FFF707FF46
:100B300000220821300000F092F96420FFF7FFFE48
:100B40006D1C2800C0B20828DFDB70BD0014014016
:100B5000000C014000000020200000204000002088
:100B6000600000208000002030B585B0684610216C
:100B700000F0B8F94348016851F0200101600168B4
:100B800011F0200104910499016851F00401016001
:100B9000016811F0040104910499016851F0080101
:100BA0000160006810F0080004900498364C0022A0
:100BB0000421200000F053F9344D002208212800C0
:100BC00000F04DF900222021280000F048F9002211
:100BD0004FF48071280000F042F900224FF40071B8
:100BE000280000F03CF90420009001200190002032
:100BF0000290022003906946200000F049F8082086
:100C0000009001200190002002900220039069468C
:100C1000280000F03DF820200090012001900020E5
:100C20000290022003906946280000F031F84FF44A
:100C3000807000900120019000200290022003901B
:100C40006946280000F024F84FF40070009001205D
:100C5000019000200290022003906946280000F0D5
:100C600017F800220421200000F0F9F800222021CA
:100C7000280000F0F4F800220821280000F0EFF826
:100C800005B030BD1810024000140140000C0140B6
:100C9000F8B502000023002514E0DFF8D80106684B
:100CA00036EA040404600CE0DFF8CC010668A643D1
:100CB000066048688002F0D5DFF8B8010668344362
:100CC00004605B1C0868D840002800F0C78001263B
:100CD0009E400C683440B442F3D1486800282CD0C0
:100CE00001281FD0022822D0032834D011281BD07D
:100CF00012281FD0DFF88471B8421ED0DFF880714F
:100D0000B8421AD0DFF87C71B84216D0DFF878719B
:100D1000B84212D0DFF87471B8420ED05C4FB842BE
:100D20000BD01AE0CD6818E0CD682D1D15E0CD6818
:100D3000083512E0CD680C350FE08868002801D135
:100D4000042507E08868012802D10825166101E022
:100D50000825566101E00025FFE7B4F5807F01D248
:100D6000170000E0171DB4F5807F02D25FEA830C04
:100D700003E0B3F1080C5FEA8C0C0F26D7F800E013
:100D800016FA0CF03EEA000E15FA0CFC5CEA0E0CAA
:100D9000C7F800C04868C00093D53E48076857F0C0
:100DA00001070760006810F00100009000983A4FBA
:100DB0001800800857F820C013F00300C0B280006C
:100DC00086403CEA060C3548824201D1002619E0F3
:100DD0003348824201D1012614E03248824201D1D7
:100DE00002260FE03048824201D103260AE02F4854
:100DF000824201D1042605E02D48824201D1052618
:100E000000E0062613F00300C0B28000864056EAD8
:100E10000C0C1800800847F820C04868C00304D5AF
:100E2000244806682643066003E022480668A64375
:100E300006604868800304D51F480668264306609C
:100E400003E01D480668A64306604868C0027FF5B7
:100E50002BAF09480668264306602AE7F1BDD2B2E7
:100E6000002A02D089B2016102E089B2090401615D
:100E7000704700000C0401400804014000001110FC
:100E8000000012100000211000002210000031109C
:100E90000000321018100240080001400008014014
:100EA000000C0140001001400014014000180140F6
:100EB000001C0140000401400404014038B5040056
:100EC000FFF73EFC050014F1010F02D00448007842
:100ED0000419FFF735FC401BA042FAD331BD00BF17
:100EE000AC000020002200F001B8000000B500BFF7
:100EF000130096469446103928BFA0E80C50FAD843
:100F00005FEA417C28BF0CC048BF40F8042BC907EA
:100F100028BF20F8022B48BF00F8012B00BD0000BD
:100F200080B500F071F800F037F8FFF7F9FC174AC8
:100F300000210020FFF73EFD154A00210120FFF7A8
:100F400039FD144A02210320FFF734FD002202215B
:100F50000220FFF74AFD012203210220FFF745FD91
:100F6000022204210220FFF740FD03220521022076
:100F7000FFF73BFD4FF47A60FFF7A0FFFFF72DFD71
:100F800041F28830FFF79AFFD1E70000BC1100085A
:100F9000CC1100080C12000800B58FB005A828215C
:100FA000FFF7A0FF68461421FFF79CFF0120059082
:100FB0005FF4803006900021079101210991022100
:100FC0000C910D905FF4E0100E9005A8FFF7B0F8BB
:100FD000002801D000F017F80F20009002200190A7
:100FE000002002904FF480600390002004900221C2
:100FF0006846FFF786FA002801D000F004F8FFF7F2
:1010000023FB0FB000BD704780B50748016851F061
:10101000100101600320FFF75CFC0020FFF796FB46
:1010200000F004F8002002BD0020024081B00E480C
:10103000016851F001010160006810F001000090AA
:1010400000980A48016851F080510160006810F072
:101050008050009000980649086830F0E06050F039
:101060000070086001B07047181002401C10024068
:10107000040001400F49086850F0010008600E4A62
:1010800013680E48034013600B680D4803400B6063
:10109000086830F480200860106830F4FE001060AA
:1010A0005FF41F00074908605FF0006006490860B0
:1010B0007047000000100240041002400000FFF8DA
:1010C000FFFFF6FE0810024008ED00E030B50168B1
:1010D00084684218416802EB5103C9070BD54C44A0
:1010E00009E012F9011B12F8015B002904F8015B09
:1010F00005D5491CF9D19A42F3D10C3030BD491EB7
:10110000F1D5F8E710B5074979441831064C7C440D
:10111000163404E00A68081D114488470146A142BC
:10112000F8D110BD0800000014000000A1FFFFFF6F
:10113000E40100002E0100000000002080B5FFF750
:10114000B8FA01BDFEE7FEE7FEE7FEE7704770472D
:10115000704780B500F002F801BD000003490A683D
:101160000348007882180A60704700BFA80000207A
:10117000AC00002000F00DF8002801D0FFF7C2FFFE
:10118000AFF300800020AFF30080FFF7C9FE00F04E
:1011900002F80120704700F001B800000746384609
:1011A00000F002F8FBE7000080B5AFF30080024AD0
:1011B00011001820ABBEFBE726000200C8D5D5D52C
:1011C000CFE3C2AFC9FAD7CFD1CC0000D2A3BFB40E
:1011D000C6D9B2BCB9D2C7B0B4A800000203040596
:1011E000060708090A0B0C0D0E0F10100000000076
:1011F00000000000010203040607080901488047B7
:10120000014800477510000819120008CBC4B4A8A3
:10121000B274CDFB00000000AFF30080AFF300809C
:10122000FFF7A8FFFFF7FEBFFFF7FEBFFFF7FEBF08
:10123000FFF7FEBFFFF7FEBFFFF7FEBFFFF7FEBFE2
:10124000FFF7FEBFFFF7FEBFFFF7FEBFFFF7FEBFD2
:10125000FFF7FEBFFFF7FEBFFFF7FEBFFFF7FEBFC2
:10126000FFF7FEBFFFF7FEBFFFF7FEBFFFF7FEBFB2
:10127000FFF7FEBFFFF7FEBFFFF7FEBFFFF7FEBFA2
:10128000FFF7FEBFFFF7FEBFFFF7FEBFFFF7FEBF92
:10129000FFF7FEBFFFF7FEBFFFF7FEBFFFF7FEBF82
:1012A000FFF7FEBFFFF7FEBFFFF7FEBFFFF7FEBF72
:1012B000FFF7FEBFFFF7FEBFFFF7FEBFFFF7FEBF62
:1012C000FFF7FEBFFFF7FEBFFFF7FEBFFFF7FEBF52
:1012D000FFF7FEBFFFF7FEBFFFF7FEBFFFF7FEBF42
:1012E000FFF7FEBFFFF7FEBFFFF7FEBFFFF7FEBF32
:1012F000FFF7FEBFFFF7FEBFFFF7FEBFFFF7FEBF22
:10130000FFF7FEBFFFF7FEBFFFF7FEBFFFF7FEBF11
:10131000FFF7FEBF37808182838485868790919214
:10132000939495969788898A8B8C8D8E8F98999AAD
:101330009B9C9D9E9F00007FE049204920492049B9
:1013400020492050E0602040207FE04020F8001736
:10135000202022202220222022202220222022207F
:101360002220222042208020F800170100EFE0A177
:1013700000AAA0E440AFE0A440E7C0A440A7C0E5B5
:1013800040AB20F8001723E01220FBE0422043E0AE
:101390007A2004607FC004003F800400FFE0F80072
:0B13A0000010FC000124F4FB00000121
:0400000508001219C4
:00000001FF
